{
  "abi": [
    {
      "type": "constructor",
      "inputs": [],
      "stateMutability": "nonpayable"
    },
    {
      "type": "function",
      "name": "ADDRESSES_PROVIDER",
      "inputs": [],
      "outputs": [
        {
          "name": "",
          "type": "address",
          "internalType": "contract IPoolAddressesProvider"
        }
      ],
      "stateMutability": "view"
    },
    {
      "type": "function",
      "name": "PERCENT_PRECISION",
      "inputs": [],
      "outputs": [
        {
          "name": "",
          "type": "uint256",
          "internalType": "uint256"
        }
      ],
      "stateMutability": "view"
    },
    {
      "type": "function",
      "name": "POOL",
      "inputs": [],
      "outputs": [
        {
          "name": "",
          "type": "address",
          "internalType": "contract IPool"
        }
      ],
      "stateMutability": "pure"
    },
    {
      "type": "function",
      "name": "REWARDS_PERMISSION",
      "inputs": [],
      "outputs": [
        {
          "name": "",
          "type": "bytes32",
          "internalType": "bytes32"
        }
      ],
      "stateMutability": "view"
    },
    {
      "type": "function",
      "name": "UPGRADE_INTERFACE_VERSION",
      "inputs": [],
      "outputs": [
        {
          "name": "",
          "type": "string",
          "internalType": "string"
        }
      ],
      "stateMutability": "view"
    },
    {
      "type": "function",
      "name": "USDC",
      "inputs": [],
      "outputs": [
        {
          "name": "",
          "type": "address",
          "internalType": "address"
        }
      ],
      "stateMutability": "view"
    },
    {
      "type": "function",
      "name": "accountId",
      "inputs": [],
      "outputs": [
        {
          "name": "",
          "type": "uint128",
          "internalType": "uint128"
        }
      ],
      "stateMutability": "view"
    },
    {
      "type": "function",
      "name": "allowance",
      "inputs": [
        {
          "name": "owner",
          "type": "address",
          "internalType": "address"
        },
        {
          "name": "spender",
          "type": "address",
          "internalType": "address"
        }
      ],
      "outputs": [
        {
          "name": "",
          "type": "uint256",
          "internalType": "uint256"
        }
      ],
      "stateMutability": "view"
    },
    {
      "type": "function",
      "name": "approve",
      "inputs": [
        {
          "name": "spender",
          "type": "address",
          "internalType": "address"
        },
        {
          "name": "value",
          "type": "uint256",
          "internalType": "uint256"
        }
      ],
      "outputs": [
        {
          "name": "",
          "type": "bool",
          "internalType": "bool"
        }
      ],
      "stateMutability": "nonpayable"
    },
    {
      "type": "function",
      "name": "asset",
      "inputs": [],
      "outputs": [
        {
          "name": "",
          "type": "address",
          "internalType": "address"
        }
      ],
      "stateMutability": "view"
    },
    {
      "type": "function",
      "name": "balanceOf",
      "inputs": [
        {
          "name": "account",
          "type": "address",
          "internalType": "address"
        }
      ],
      "outputs": [
        {
          "name": "",
          "type": "uint256",
          "internalType": "uint256"
        }
      ],
      "stateMutability": "view"
    },
    {
      "type": "function",
      "name": "claimRewards",
      "inputs": [],
      "outputs": [
        {
          "name": "",
          "type": "tuple[]",
          "internalType": "struct IRewardsDistributionRegistry.RewardInfo[]",
          "components": [
            {
              "name": "synthAmount",
              "type": "uint256",
              "internalType": "uint256"
            },
            {
              "name": "rewardAmount",
              "type": "uint256",
              "internalType": "uint256"
            },
            {
              "name": "spotMarketId",
              "type": "uint128",
              "internalType": "uint128"
            },
            {
              "name": "distributor",
              "type": "address",
              "internalType": "address"
            },
            {
              "name": "synthToken",
              "type": "address",
              "internalType": "address"
            },
            {
              "name": "rewardToken",
              "type": "address",
              "internalType": "address"
            }
          ]
        }
      ],
      "stateMutability": "nonpayable"
    },
    {
      "type": "function",
      "name": "claimSwapCompound",
      "inputs": [
        {
          "name": "odosSwapData",
          "type": "bytes[]",
          "internalType": "bytes[]"
        }
      ],
      "outputs": [],
      "stateMutability": "nonpayable"
    },
    {
      "type": "function",
      "name": "compound",
      "inputs": [],
      "outputs": [],
      "stateMutability": "nonpayable"
    },
    {
      "type": "function",
      "name": "convertToAssets",
      "inputs": [
        {
          "name": "",
          "type": "uint256",
          "internalType": "uint256"
        }
      ],
      "outputs": [
        {
          "name": "",
          "type": "uint256",
          "internalType": "uint256"
        }
      ],
      "stateMutability": "pure"
    },
    {
      "type": "function",
      "name": "convertToShares",
      "inputs": [
        {
          "name": "",
          "type": "uint256",
          "internalType": "uint256"
        }
      ],
      "outputs": [
        {
          "name": "",
          "type": "uint256",
          "internalType": "uint256"
        }
      ],
      "stateMutability": "pure"
    },
    {
      "type": "function",
      "name": "coreProxy",
      "inputs": [],
      "outputs": [
        {
          "name": "",
          "type": "address",
          "internalType": "address"
        }
      ],
      "stateMutability": "view"
    },
    {
      "type": "function",
      "name": "currentDebt",
      "inputs": [],
      "outputs": [
        {
          "name": "",
          "type": "int256",
          "internalType": "int256"
        }
      ],
      "stateMutability": "nonpayable"
    },
    {
      "type": "function",
      "name": "decayingRedemptionPenalty",
      "inputs": [
        {
          "name": "user",
          "type": "address",
          "internalType": "address"
        },
        {
          "name": "assets",
          "type": "uint256",
          "internalType": "uint256"
        }
      ],
      "outputs": [
        {
          "name": "",
          "type": "uint256",
          "internalType": "uint256"
        }
      ],
      "stateMutability": "view"
    },
    {
      "type": "function",
      "name": "decayingRedemptionPenaltyDuration",
      "inputs": [],
      "outputs": [
        {
          "name": "",
          "type": "uint256",
          "internalType": "uint256"
        }
      ],
      "stateMutability": "view"
    },
    {
      "type": "function",
      "name": "decayingRedemptionPenaltyStart",
      "inputs": [],
      "outputs": [
        {
          "name": "",
          "type": "uint256",
          "internalType": "uint256"
        }
      ],
      "stateMutability": "view"
    },
    {
      "type": "function",
      "name": "decimals",
      "inputs": [],
      "outputs": [
        {
          "name": "",
          "type": "uint8",
          "internalType": "uint8"
        }
      ],
      "stateMutability": "pure"
    },
    {
      "type": "function",
      "name": "deposit",
      "inputs": [
        {
          "name": "assets",
          "type": "uint256",
          "internalType": "uint256"
        },
        {
          "name": "receiver",
          "type": "address",
          "internalType": "address"
        }
      ],
      "outputs": [
        {
          "name": "",
          "type": "uint256",
          "internalType": "uint256"
        }
      ],
      "stateMutability": "nonpayable"
    },
    {
      "type": "function",
      "name": "executeOperation",
      "inputs": [
        {
          "name": "_asset",
          "type": "address",
          "internalType": "address"
        },
        {
          "name": "amount",
          "type": "uint256",
          "internalType": "uint256"
        },
        {
          "name": "premium",
          "type": "uint256",
          "internalType": "uint256"
        },
        {
          "name": "initiator",
          "type": "address",
          "internalType": "address"
        },
        {
          "name": "params",
          "type": "bytes",
          "internalType": "bytes"
        }
      ],
      "outputs": [
        {
          "name": "",
          "type": "bool",
          "internalType": "bool"
        }
      ],
      "stateMutability": "nonpayable"
    },
    {
      "type": "function",
      "name": "initialize",
      "inputs": [
        {
          "name": "USDC_",
          "type": "address",
          "internalType": "address"
        },
        {
          "name": "coreProxy_",
          "type": "address",
          "internalType": "address"
        },
        {
          "name": "spotMarketProxy_",
          "type": "address",
          "internalType": "address"
        },
        {
          "name": "rewardsRegistry_",
          "type": "address",
          "internalType": "address"
        },
        {
          "name": "odosRouter_",
          "type": "address",
          "internalType": "address"
        },
        {
          "name": "stataUSDC_",
          "type": "address",
          "internalType": "address"
        },
        {
          "name": "synthStataUSDC_",
          "type": "address",
          "internalType": "address"
        }
      ],
      "outputs": [],
      "stateMutability": "nonpayable"
    },
    {
      "type": "function",
      "name": "isKeeper",
      "inputs": [
        {
          "name": "keeper",
          "type": "address",
          "internalType": "address"
        }
      ],
      "outputs": [
        {
          "name": "isKeeper",
          "type": "bool",
          "internalType": "bool"
        }
      ],
      "stateMutability": "view"
    },
    {
      "type": "function",
      "name": "mint",
      "inputs": [
        {
          "name": "",
          "type": "uint256",
          "internalType": "uint256"
        },
        {
          "name": "",
          "type": "address",
          "internalType": "address"
        }
      ],
      "outputs": [
        {
          "name": "",
          "type": "uint256",
          "internalType": "uint256"
        }
      ],
      "stateMutability": "pure"
    },
    {
      "type": "function",
      "name": "name",
      "inputs": [],
      "outputs": [
        {
          "name": "",
          "type": "string",
          "internalType": "string"
        }
      ],
      "stateMutability": "view"
    },
    {
      "type": "function",
      "name": "odosRouter",
      "inputs": [],
      "outputs": [
        {
          "name": "",
          "type": "address",
          "internalType": "address"
        }
      ],
      "stateMutability": "view"
    },
    {
      "type": "function",
      "name": "onERC721Received",
      "inputs": [
        {
          "name": "",
          "type": "address",
          "internalType": "address"
        },
        {
          "name": "",
          "type": "address",
          "internalType": "address"
        },
        {
          "name": "",
          "type": "uint256",
          "internalType": "uint256"
        },
        {
          "name": "",
          "type": "bytes",
          "internalType": "bytes"
        }
      ],
      "outputs": [
        {
          "name": "",
          "type": "bytes4",
          "internalType": "bytes4"
        }
      ],
      "stateMutability": "pure"
    },
    {
      "type": "function",
      "name": "owner",
      "inputs": [],
      "outputs": [
        {
          "name": "",
          "type": "address",
          "internalType": "address"
        }
      ],
      "stateMutability": "view"
    },
    {
      "type": "function",
      "name": "performSwaps",
      "inputs": [
        {
          "name": "odosSwapData",
          "type": "bytes[]",
          "internalType": "bytes[]"
        },
        {
          "name": "rewardsClaimed",
          "type": "tuple[]",
          "internalType": "struct IRewardsDistributionRegistry.RewardInfo[]",
          "components": [
            {
              "name": "synthAmount",
              "type": "uint256",
              "internalType": "uint256"
            },
            {
              "name": "rewardAmount",
              "type": "uint256",
              "internalType": "uint256"
            },
            {
              "name": "spotMarketId",
              "type": "uint128",
              "internalType": "uint128"
            },
            {
              "name": "distributor",
              "type": "address",
              "internalType": "address"
            },
            {
              "name": "synthToken",
              "type": "address",
              "internalType": "address"
            },
            {
              "name": "rewardToken",
              "type": "address",
              "internalType": "address"
            }
          ]
        }
      ],
      "outputs": [
        {
          "name": "assetsReceived",
          "type": "uint256",
          "internalType": "uint256"
        }
      ],
      "stateMutability": "nonpayable"
    },
    {
      "type": "function",
      "name": "poolId",
      "inputs": [],
      "outputs": [
        {
          "name": "",
          "type": "uint128",
          "internalType": "uint128"
        }
      ],
      "stateMutability": "view"
    },
    {
      "type": "function",
      "name": "previewDeposit",
      "inputs": [
        {
          "name": "",
          "type": "uint256",
          "internalType": "uint256"
        }
      ],
      "outputs": [
        {
          "name": "",
          "type": "uint256",
          "internalType": "uint256"
        }
      ],
      "stateMutability": "pure"
    },
    {
      "type": "function",
      "name": "previewDepositSync",
      "inputs": [
        {
          "name": "assets",
          "type": "uint256",
          "internalType": "uint256"
        }
      ],
      "outputs": [
        {
          "name": "",
          "type": "uint256",
          "internalType": "uint256"
        }
      ],
      "stateMutability": "nonpayable"
    },
    {
      "type": "function",
      "name": "previewMint",
      "inputs": [
        {
          "name": "",
          "type": "uint256",
          "internalType": "uint256"
        }
      ],
      "outputs": [
        {
          "name": "",
          "type": "uint256",
          "internalType": "uint256"
        }
      ],
      "stateMutability": "pure"
    },
    {
      "type": "function",
      "name": "previewRedeem",
      "inputs": [
        {
          "name": "",
          "type": "uint256",
          "internalType": "uint256"
        }
      ],
      "outputs": [
        {
          "name": "",
          "type": "uint256",
          "internalType": "uint256"
        }
      ],
      "stateMutability": "pure"
    },
    {
      "type": "function",
      "name": "previewRedeemSync",
      "inputs": [
        {
          "name": "shares",
          "type": "uint256",
          "internalType": "uint256"
        }
      ],
      "outputs": [
        {
          "name": "",
          "type": "uint256",
          "internalType": "uint256"
        }
      ],
      "stateMutability": "nonpayable"
    },
    {
      "type": "function",
      "name": "previewWithdraw",
      "inputs": [
        {
          "name": "",
          "type": "uint256",
          "internalType": "uint256"
        }
      ],
      "outputs": [
        {
          "name": "",
          "type": "uint256",
          "internalType": "uint256"
        }
      ],
      "stateMutability": "pure"
    },
    {
      "type": "function",
      "name": "proxiableUUID",
      "inputs": [],
      "outputs": [
        {
          "name": "",
          "type": "bytes32",
          "internalType": "bytes32"
        }
      ],
      "stateMutability": "view"
    },
    {
      "type": "function",
      "name": "redeem",
      "inputs": [
        {
          "name": "shares",
          "type": "uint256",
          "internalType": "uint256"
        },
        {
          "name": "receiver",
          "type": "address",
          "internalType": "address"
        },
        {
          "name": "owner",
          "type": "address",
          "internalType": "address"
        }
      ],
      "outputs": [
        {
          "name": "",
          "type": "uint256",
          "internalType": "uint256"
        }
      ],
      "stateMutability": "nonpayable"
    },
    {
      "type": "function",
      "name": "renounceOwnership",
      "inputs": [],
      "outputs": [],
      "stateMutability": "nonpayable"
    },
    {
      "type": "function",
      "name": "rewardsRegistry",
      "inputs": [],
      "outputs": [
        {
          "name": "",
          "type": "address",
          "internalType": "address"
        }
      ],
      "stateMutability": "view"
    },
    {
      "type": "function",
      "name": "rewardsUsdValueDiscount",
      "inputs": [],
      "outputs": [
        {
          "name": "",
          "type": "uint256",
          "internalType": "uint256"
        }
      ],
      "stateMutability": "view"
    },
    {
      "type": "function",
      "name": "setDecayingRedemptionPenaltyDuration",
      "inputs": [
        {
          "name": "newValue",
          "type": "uint256",
          "internalType": "uint256"
        }
      ],
      "outputs": [],
      "stateMutability": "nonpayable"
    },
    {
      "type": "function",
      "name": "setDecayingRedemptionPenaltyStart",
      "inputs": [
        {
          "name": "newValue",
          "type": "uint256",
          "internalType": "uint256"
        }
      ],
      "outputs": [],
      "stateMutability": "nonpayable"
    },
    {
      "type": "function",
      "name": "setKeeper",
      "inputs": [
        {
          "name": "keeper",
          "type": "address",
          "internalType": "address"
        },
        {
          "name": "setIsKeeper",
          "type": "bool",
          "internalType": "bool"
        }
      ],
      "outputs": [],
      "stateMutability": "nonpayable"
    },
    {
      "type": "function",
      "name": "setRewardsRegistry",
      "inputs": [
        {
          "name": "_newRewardsRegistry",
          "type": "address",
          "internalType": "address"
        }
      ],
      "outputs": [],
      "stateMutability": "nonpayable"
    },
    {
      "type": "function",
      "name": "setRewardsUsdValueDiscount",
      "inputs": [
        {
          "name": "newValue",
          "type": "uint256",
          "internalType": "uint256"
        }
      ],
      "outputs": [],
      "stateMutability": "nonpayable"
    },
    {
      "type": "function",
      "name": "spotMarketProxy",
      "inputs": [],
      "outputs": [
        {
          "name": "",
          "type": "address",
          "internalType": "address"
        }
      ],
      "stateMutability": "view"
    },
    {
      "type": "function",
      "name": "stataUSDC",
      "inputs": [],
      "outputs": [
        {
          "name": "",
          "type": "address",
          "internalType": "address"
        }
      ],
      "stateMutability": "view"
    },
    {
      "type": "function",
      "name": "symbol",
      "inputs": [],
      "outputs": [
        {
          "name": "",
          "type": "string",
          "internalType": "string"
        }
      ],
      "stateMutability": "view"
    },
    {
      "type": "function",
      "name": "synthIdStataUSDC",
      "inputs": [],
      "outputs": [
        {
          "name": "",
          "type": "uint128",
          "internalType": "uint128"
        }
      ],
      "stateMutability": "view"
    },
    {
      "type": "function",
      "name": "synthIdUSDC",
      "inputs": [],
      "outputs": [
        {
          "name": "",
          "type": "uint128",
          "internalType": "uint128"
        }
      ],
      "stateMutability": "view"
    },
    {
      "type": "function",
      "name": "synthStataUSDC",
      "inputs": [],
      "outputs": [
        {
          "name": "",
          "type": "address",
          "internalType": "address"
        }
      ],
      "stateMutability": "view"
    },
    {
      "type": "function",
      "name": "totalAssets",
      "inputs": [],
      "outputs": [
        {
          "name": "",
          "type": "uint256",
          "internalType": "uint256"
        }
      ],
      "stateMutability": "pure"
    },
    {
      "type": "function",
      "name": "totalAssetsSync",
      "inputs": [],
      "outputs": [
        {
          "name": "",
          "type": "uint256",
          "internalType": "uint256"
        }
      ],
      "stateMutability": "nonpayable"
    },
    {
      "type": "function",
      "name": "totalSupply",
      "inputs": [],
      "outputs": [
        {
          "name": "",
          "type": "uint256",
          "internalType": "uint256"
        }
      ],
      "stateMutability": "view"
    },
    {
      "type": "function",
      "name": "transfer",
      "inputs": [
        {
          "name": "to",
          "type": "address",
          "internalType": "address"
        },
        {
          "name": "value",
          "type": "uint256",
          "internalType": "uint256"
        }
      ],
      "outputs": [
        {
          "name": "",
          "type": "bool",
          "internalType": "bool"
        }
      ],
      "stateMutability": "nonpayable"
    },
    {
      "type": "function",
      "name": "transferFrom",
      "inputs": [
        {
          "name": "from",
          "type": "address",
          "internalType": "address"
        },
        {
          "name": "to",
          "type": "address",
          "internalType": "address"
        },
        {
          "name": "value",
          "type": "uint256",
          "internalType": "uint256"
        }
      ],
      "outputs": [
        {
          "name": "",
          "type": "bool",
          "internalType": "bool"
        }
      ],
      "stateMutability": "nonpayable"
    },
    {
      "type": "function",
      "name": "transferOwnership",
      "inputs": [
        {
          "name": "newOwner",
          "type": "address",
          "internalType": "address"
        }
      ],
      "outputs": [],
      "stateMutability": "nonpayable"
    },
    {
      "type": "function",
      "name": "upgradeToAndCall",
      "inputs": [
        {
          "name": "newImplementation",
          "type": "address",
          "internalType": "address"
        },
        {
          "name": "data",
          "type": "bytes",
          "internalType": "bytes"
        }
      ],
      "outputs": [],
      "stateMutability": "payable"
    },
    {
      "type": "function",
      "name": "usdcToRepayDebt",
      "inputs": [],
      "outputs": [
        {
          "name": "",
          "type": "uint256",
          "internalType": "uint256"
        }
      ],
      "stateMutability": "nonpayable"
    },
    {
      "type": "function",
      "name": "userLastDeposited",
      "inputs": [
        {
          "name": "user",
          "type": "address",
          "internalType": "address"
        }
      ],
      "outputs": [
        {
          "name": "lastDeposited",
          "type": "uint256",
          "internalType": "uint256"
        }
      ],
      "stateMutability": "view"
    },
    {
      "type": "function",
      "name": "withdraw",
      "inputs": [
        {
          "name": "",
          "type": "uint256",
          "internalType": "uint256"
        },
        {
          "name": "",
          "type": "address",
          "internalType": "address"
        },
        {
          "name": "",
          "type": "address",
          "internalType": "address"
        }
      ],
      "outputs": [
        {
          "name": "",
          "type": "uint256",
          "internalType": "uint256"
        }
      ],
      "stateMutability": "pure"
    },
    {
      "type": "event",
      "name": "Approval",
      "inputs": [
        {
          "name": "owner",
          "type": "address",
          "indexed": true,
          "internalType": "address"
        },
        {
          "name": "spender",
          "type": "address",
          "indexed": true,
          "internalType": "address"
        },
        {
          "name": "value",
          "type": "uint256",
          "indexed": false,
          "internalType": "uint256"
        }
      ],
      "anonymous": false
    },
    {
      "type": "event",
      "name": "DecayingRedemptionPenaltyDurationUpdated",
      "inputs": [
        {
          "name": "newValue",
          "type": "uint256",
          "indexed": false,
          "internalType": "uint256"
        }
      ],
      "anonymous": false
    },
    {
      "type": "event",
      "name": "DecayingRedemptionPenaltyStartUpdated",
      "inputs": [
        {
          "name": "newValue",
          "type": "uint256",
          "indexed": false,
          "internalType": "uint256"
        }
      ],
      "anonymous": false
    },
    {
      "type": "event",
      "name": "Deposit",
      "inputs": [
        {
          "name": "sender",
          "type": "address",
          "indexed": true,
          "internalType": "address"
        },
        {
          "name": "owner",
          "type": "address",
          "indexed": true,
          "internalType": "address"
        },
        {
          "name": "assets",
          "type": "uint256",
          "indexed": false,
          "internalType": "uint256"
        },
        {
          "name": "shares",
          "type": "uint256",
          "indexed": false,
          "internalType": "uint256"
        }
      ],
      "anonymous": false
    },
    {
      "type": "event",
      "name": "Initialized",
      "inputs": [
        {
          "name": "version",
          "type": "uint64",
          "indexed": false,
          "internalType": "uint64"
        }
      ],
      "anonymous": false
    },
    {
      "type": "event",
      "name": "OwnershipTransferred",
      "inputs": [
        {
          "name": "previousOwner",
          "type": "address",
          "indexed": true,
          "internalType": "address"
        },
        {
          "name": "newOwner",
          "type": "address",
          "indexed": true,
          "internalType": "address"
        }
      ],
      "anonymous": false
    },
    {
      "type": "event",
      "name": "RewardsUsdValueDiscountUpdated",
      "inputs": [
        {
          "name": "newValue",
          "type": "uint256",
          "indexed": false,
          "internalType": "uint256"
        }
      ],
      "anonymous": false
    },
    {
      "type": "event",
      "name": "Transfer",
      "inputs": [
        {
          "name": "from",
          "type": "address",
          "indexed": true,
          "internalType": "address"
        },
        {
          "name": "to",
          "type": "address",
          "indexed": true,
          "internalType": "address"
        },
        {
          "name": "value",
          "type": "uint256",
          "indexed": false,
          "internalType": "uint256"
        }
      ],
      "anonymous": false
    },
    {
      "type": "event",
      "name": "Upgraded",
      "inputs": [
        {
          "name": "implementation",
          "type": "address",
          "indexed": true,
          "internalType": "address"
        }
      ],
      "anonymous": false
    },
    {
      "type": "event",
      "name": "Withdraw",
      "inputs": [
        {
          "name": "sender",
          "type": "address",
          "indexed": true,
          "internalType": "address"
        },
        {
          "name": "receiver",
          "type": "address",
          "indexed": true,
          "internalType": "address"
        },
        {
          "name": "owner",
          "type": "address",
          "indexed": true,
          "internalType": "address"
        },
        {
          "name": "assets",
          "type": "uint256",
          "indexed": false,
          "internalType": "uint256"
        },
        {
          "name": "shares",
          "type": "uint256",
          "indexed": false,
          "internalType": "uint256"
        }
      ],
      "anonymous": false
    },
    {
      "type": "error",
      "name": "AddressEmptyCode",
      "inputs": [
        {
          "name": "target",
          "type": "address",
          "internalType": "address"
        }
      ]
    },
    {
      "type": "error",
      "name": "CallerIsNotAKeeper",
      "inputs": []
    },
    {
      "type": "error",
      "name": "CallerNotAAVE",
      "inputs": []
    },
    {
      "type": "error",
      "name": "ERC1967InvalidImplementation",
      "inputs": [
        {
          "name": "implementation",
          "type": "address",
          "internalType": "address"
        }
      ]
    },
    {
      "type": "error",
      "name": "ERC1967NonPayable",
      "inputs": []
    },
    {
      "type": "error",
      "name": "ERC20InsufficientAllowance",
      "inputs": [
        {
          "name": "spender",
          "type": "address",
          "internalType": "address"
        },
        {
          "name": "allowance",
          "type": "uint256",
          "internalType": "uint256"
        },
        {
          "name": "needed",
          "type": "uint256",
          "internalType": "uint256"
        }
      ]
    },
    {
      "type": "error",
      "name": "ERC20InsufficientBalance",
      "inputs": [
        {
          "name": "sender",
          "type": "address",
          "internalType": "address"
        },
        {
          "name": "balance",
          "type": "uint256",
          "internalType": "uint256"
        },
        {
          "name": "needed",
          "type": "uint256",
          "internalType": "uint256"
        }
      ]
    },
    {
      "type": "error",
      "name": "ERC20InvalidApprover",
      "inputs": [
        {
          "name": "approver",
          "type": "address",
          "internalType": "address"
        }
      ]
    },
    {
      "type": "error",
      "name": "ERC20InvalidReceiver",
      "inputs": [
        {
          "name": "receiver",
          "type": "address",
          "internalType": "address"
        }
      ]
    },
    {
      "type": "error",
      "name": "ERC20InvalidSender",
      "inputs": [
        {
          "name": "sender",
          "type": "address",
          "internalType": "address"
        }
      ]
    },
    {
      "type": "error",
      "name": "ERC20InvalidSpender",
      "inputs": [
        {
          "name": "spender",
          "type": "address",
          "internalType": "address"
        }
      ]
    },
    {
      "type": "error",
      "name": "FailedCall",
      "inputs": []
    },
    {
      "type": "error",
      "name": "InvalidInitialization",
      "inputs": []
    },
    {
      "type": "error",
      "name": "InvalidSwapDataLength",
      "inputs": []
    },
    {
      "type": "error",
      "name": "NotEnoughAllowance",
      "inputs": [
        {
          "name": "walletAddress",
          "type": "address",
          "internalType": "address"
        },
        {
          "name": "tokenAddress",
          "type": "address",
          "internalType": "address"
        },
        {
          "name": "requiredAllowance",
          "type": "uint256",
          "internalType": "uint256"
        },
        {
          "name": "availableAllowance",
          "type": "uint256",
          "internalType": "uint256"
        }
      ]
    },
    {
      "type": "error",
      "name": "NotEnoughBalance",
      "inputs": [
        {
          "name": "walletAddress",
          "type": "address",
          "internalType": "address"
        },
        {
          "name": "tokenAddress",
          "type": "address",
          "internalType": "address"
        },
        {
          "name": "requiredAmount",
          "type": "uint256",
          "internalType": "uint256"
        },
        {
          "name": "availableAmount",
          "type": "uint256",
          "internalType": "uint256"
        }
      ]
    },
    {
      "type": "error",
      "name": "NotImplemented",
      "inputs": []
    },
    {
      "type": "error",
      "name": "NotInitializing",
      "inputs": []
    },
    {
      "type": "error",
      "name": "OwnableInvalidOwner",
      "inputs": [
        {
          "name": "owner",
          "type": "address",
          "internalType": "address"
        }
      ]
    },
    {
      "type": "error",
      "name": "OwnableUnauthorizedAccount",
      "inputs": [
        {
          "name": "account",
          "type": "address",
          "internalType": "address"
        }
      ]
    },
    {
      "type": "error",
      "name": "SafeERC20FailedOperation",
      "inputs": [
        {
          "name": "token",
          "type": "address",
          "internalType": "address"
        }
      ]
    },
    {
      "type": "error",
      "name": "TransferBlocked",
      "inputs": []
    },
    {
      "type": "error",
      "name": "UUPSUnauthorizedCallContext",
      "inputs": []
    },
    {
      "type": "error",
      "name": "UUPSUnsupportedProxiableUUID",
      "inputs": [
        {
          "name": "slot",
          "type": "bytes32",
          "internalType": "bytes32"
        }
      ]
    },
    {
      "type": "error",
      "name": "UnauthorizedInitiator",
      "inputs": []
    },
    {
      "type": "error",
      "name": "WrongUSDCAmountRecieved",
      "inputs": []
    }
  ],
  "bytecode": {
    "object": "0x60a060405230608052348015610013575f5ffd5b5061001c610021565b6100d3565b7ff0c57e16840df040f15088dc2f81fe391c3923bec73e23a9662efc9c229c6a00805468010000000000000000900460ff16156100715760405163f92ee8a960e01b815260040160405180910390fd5b80546001600160401b03908116146100d05780546001600160401b0319166001600160401b0390811782556040519081527fc7f505b2f371ae2175ee4913f4499e1f2633a7b5936321eed1cdaeb6115181d29060200160405180910390a15b50565b608051615e0b6100f95f395f8181613a4d01528181613a760152613c440152615e0b5ff3fe6080604052600436106103cd575f3560e01c8063715018a611610203578063af6f702011610122578063c79d3547116100b7578063f2fde38b11610087578063f69e20461161006d578063f69e204614610c1e578063f99f4c5314610c32578063ffe8e37214610c65575f5ffd5b8063f2fde38b14610be0578063f4770d6e14610bff575f5ffd5b8063c79d354714610b3f578063d1b9e85314610b5e578063dd62ed3e14610b7d578063ef8b30f714610466575f5ffd5b8063ba087652116100f2578063ba08765214610aec578063bc22a4e614610b0b578063c0c407e014610b2a578063c6e6f59214610466575f5ffd5b8063af6f702014610a96578063b3d7f6b914610466578063b460af9414610abe578063b6400c6b14610ad8575f5ffd5b806394bf804d11610198578063a9059cbb11610168578063a9059cbb146109fc578063ad3cb1cc14610a1b578063add1d42a14610a63578063add9019d14610a82575f5ffd5b806394bf804d1461097357806395d89b411461098d5780639cfd7cff146109a1578063a65bac41146109dd575f5ffd5b806389a30271116101d357806389a30271146108db5780638c794231146108fa5780638da5cb5b146109195780638e519e4c14610955575f5ffd5b8063715018a61461086e5780637535d24614610882578063759076e5146108a85780638321928d146108bc575f5ffd5b806335876476116102ef5780634cdad506116102845780636ba42aaa116102545780636ba42aaa146107925780636e553f65146107c0578063700073f1146107df57806370a082311461081b575f5ffd5b80634cdad506146104665780634f1ef2861461074c57806352d1902d1461075f578063692a073f14610773575f5ffd5b80633ba12353116102bf5780633ba12353146106a45780633cb2d8ca146106c35780633e0dc34e146106ee5780634063812514610737575f5ffd5b80633587647614610626578063372500ab1461064557806338ce3d281461066657806338d52e0f14610685575f5ffd5b806318160ddd116103655780631c8b7723116103355780631c8b7723146105ae57806323b872dd146105cd5780632cd463fd146105ec578063313ce5671461060b575f5ffd5b806318160ddd14610528578063184b24521461055b5780631b11d0ff146105705780631c55e6811461058f575f5ffd5b806307a2d13a116103a057806307a2d13a14610466578063095ea7b3146104855780630a28a47714610466578063150b7a02146104b4575f5ffd5b806301e1d114146103d15780630433e5d4146103f85780630542975c1461041957806306fdde0314610445575b5f5ffd5b3480156103dc575f5ffd5b506103e5610c80565b6040519081526020015b60405180910390f35b348015610403575f5ffd5b50610417610412366004614ea8565b610cb3565b005b348015610424575f5ffd5b5061042d610cd7565b6040516001600160a01b0390911681526020016103ef565b348015610450575f5ffd5b50610459610d51565b6040516103ef9190614f33565b348015610471575f5ffd5b506103e5610480366004614f45565b610c80565b348015610490575f5ffd5b506104a461049f366004614f70565b610e24565b60405190151581526020016103ef565b3480156104bf575f5ffd5b506104f76104ce3660046150d6565b7f150b7a0200000000000000000000000000000000000000000000000000000000949350505050565b6040517fffffffff0000000000000000000000000000000000000000000000000000000090911681526020016103ef565b348015610533575f5ffd5b507f52c63247e1f47db19d5ce0460030c497f067ca4cebf71ba98eeadabe20bace02546103e5565b348015610566575f5ffd5b506103e5600a5481565b34801561057b575f5ffd5b506104a461058a36600461513e565b610e3d565b34801561059a575f5ffd5b5060075461042d906001600160a01b031681565b3480156105b9575f5ffd5b5060025461042d906001600160a01b031681565b3480156105d8575f5ffd5b506104a46105e73660046151e3565b6110df565b3480156105f7575f5ffd5b50610417610606366004614f45565b611104565b348015610616575f5ffd5b50604051600681526020016103ef565b348015610631575f5ffd5b50610417610640366004615221565b611148565b348015610650575f5ffd5b50610659611689565b6040516103ef91906152b2565b348015610671575f5ffd5b506103e5610680366004614f45565b6117bb565b348015610690575f5ffd5b5060055461042d906001600160a01b031681565b3480156106af575f5ffd5b506104176106be366004614f45565b6117c6565b3480156106ce575f5ffd5b506103e56106dd36600461535b565b600d6020525f908152604090205481565b3480156106f9575f5ffd5b50600854610716906fffffffffffffffffffffffffffffffff1681565b6040516fffffffffffffffffffffffffffffffff90911681526020016103ef565b348015610742575f5ffd5b506103e5600c5481565b61041761075a366004615376565b611803565b34801561076a575f5ffd5b506103e5611822565b34801561077e575f5ffd5b506103e561078d366004614f45565b611850565b34801561079d575f5ffd5b506104a46107ac36600461535b565b600e6020525f908152604090205460ff1681565b3480156107cb575f5ffd5b506103e56107da3660046153c3565b61185b565b3480156107ea575f5ffd5b506009546107169070010000000000000000000000000000000090046fffffffffffffffffffffffffffffffff1681565b348015610826575f5ffd5b506103e561083536600461535b565b6001600160a01b03165f9081527f52c63247e1f47db19d5ce0460030c497f067ca4cebf71ba98eeadabe20bace00602052604090205490565b348015610879575f5ffd5b50610417611915565b34801561088d575f5ffd5b5073a238dd80c259a72e81d7e4664a9801593f98d1c561042d565b3480156108b3575f5ffd5b506103e5611928565b3480156108c7575f5ffd5b5060035461042d906001600160a01b031681565b3480156108e6575f5ffd5b5060045461042d906001600160a01b031681565b348015610905575f5ffd5b50610417610914366004614f45565b6119e8565b348015610924575f5ffd5b507f9016d09d72d40fdae2fd8ceac6b6234c7706214fd39c1cd1e609a0528c199300546001600160a01b031661042d565b348015610960575f5ffd5b505f5461042d906001600160a01b031681565b34801561097e575f5ffd5b506103e56104803660046153c3565b348015610998575f5ffd5b50610459611a25565b3480156109ac575f5ffd5b506008546107169070010000000000000000000000000000000090046fffffffffffffffffffffffffffffffff1681565b3480156109e8575f5ffd5b506103e56109f7366004614f70565b611a76565b348015610a07575f5ffd5b506104a4610a16366004614f70565b611b1f565b348015610a26575f5ffd5b506104596040518060400160405280600581526020017f352e302e3000000000000000000000000000000000000000000000000000000081525081565b348015610a6e575f5ffd5b5060015461042d906001600160a01b031681565b348015610a8d575f5ffd5b506103e5611b93565b348015610aa1575f5ffd5b50600954610716906fffffffffffffffffffffffffffffffff1681565b348015610ac9575f5ffd5b506103e56104803660046153f1565b348015610ae3575f5ffd5b506103e5611c41565b348015610af7575f5ffd5b506103e5610b063660046153f1565b611eec565b348015610b16575f5ffd5b5060065461042d906001600160a01b031681565b348015610b35575f5ffd5b506103e5600b5481565b348015610b4a575f5ffd5b506103e5610b59366004615470565b611fed565b348015610b69575f5ffd5b50610417610b783660046155b1565b6123cf565b348015610b88575f5ffd5b506103e5610b973660046155dd565b6001600160a01b039182165f9081527f52c63247e1f47db19d5ce0460030c497f067ca4cebf71ba98eeadabe20bace016020908152604080832093909416825291909152205490565b348015610beb575f5ffd5b50610417610bfa36600461535b565b61241f565b348015610c0a575f5ffd5b50610417610c1936600461535b565b612475565b348015610c29575f5ffd5b506104176124b7565b348015610c3d575f5ffd5b506103e57f524557415244530000000000000000000000000000000000000000000000000081565b348015610c70575f5ffd5b506103e5670de0b6b3a764000081565b5f6040517fd623472500000000000000000000000000000000000000000000000000000000815260040160405180910390fd5b5f610cbc611689565b9050610cc9838383611fed565b50610cd26124b7565b505050565b5f73a238dd80c259a72e81d7e4664a9801593f98d1c56001600160a01b0316630542975c6040518163ffffffff1660e01b8152600401602060405180830381865afa158015610d28573d5f5f3e3d5ffd5b505050506040513d601f19601f82011682018060405250810190610d4c9190615609565b905090565b7f52c63247e1f47db19d5ce0460030c497f067ca4cebf71ba98eeadabe20bace0380546060917f52c63247e1f47db19d5ce0460030c497f067ca4cebf71ba98eeadabe20bace0091610da290615624565b80601f0160208091040260200160405190810160405280929190818152602001828054610dce90615624565b8015610e195780601f10610df057610100808354040283529160200191610e19565b820191905f5260205f20905b815481529060010190602001808311610dfc57829003601f168201915b505050505091505090565b5f33610e31818585612dbf565b60019150505b92915050565b5f3373a238dd80c259a72e81d7e4664a9801593f98d1c514610e8b576040517faaccf57f00000000000000000000000000000000000000000000000000000000815260040160405180910390fd5b6001600160a01b0384163014610ecd576040517f67ad268700000000000000000000000000000000000000000000000000000000815260040160405180910390fd5b610edd610ed8611928565b612dcc565b5f610eea83850185614f45565b90505f610ef787896156a2565b6006546040517f0a28a477000000000000000000000000000000000000000000000000000000008152600481018390529192505f916001600160a01b0390911690630a28a47790602401602060405180830381865afa158015610f5c573d5f5f3e3d5ffd5b505050506040513d601f19601f82011682018060405250810190610f8091906156b5565b90505f610f8d82856156a2565b9050610f9881613371565b6006546040517fbe4a0a140000000000000000000000000000000000000000000000000000000081526004810184905230602482018190526044820152600160648201526001600160a01b039091169063be4a0a149060840160408051808303815f875af115801561100c573d5f5f3e3d5ffd5b505050506040513d601f19601f8201168201806040525081019061103091906156cc565b50506040517f095ea7b300000000000000000000000000000000000000000000000000000000815273a238dd80c259a72e81d7e4664a9801593f98d1c56004820152602481018490526001600160a01b038c169063095ea7b3906044016020604051808303815f875af11580156110a9573d5f5f3e3d5ffd5b505050506040513d601f19601f820116820180604052508101906110cd91906156ee565b5060019b9a5050505050505050505050565b5f336110ec8582856137bb565b6110f785858561386f565b60019150505b9392505050565b61110c6138fe565b600c8190556040518181527ffeed1bca9c0a43ce4867fcb6bd58179a09fd101a4402e0a5a334aec7f375868f906020015b60405180910390a150565b7ff0c57e16840df040f15088dc2f81fe391c3923bec73e23a9662efc9c229c6a00805468010000000000000000810460ff16159067ffffffffffffffff165f811580156111925750825b90505f8267ffffffffffffffff1660011480156111ae5750303b155b9050811580156111bc575080155b156111f3576040517ff92ee8a900000000000000000000000000000000000000000000000000000000815260040160405180910390fd5b84547fffffffffffffffffffffffffffffffffffffffffffffffff000000000000000016600117855583156112545784547fffffffffffffffffffffffffffffffffffffffffffffff00ffffffffffffffff16680100000000000000001785555b6112c86040518060400160405280601c81526020017f53796e746865746978204175746f636f6d706f756e64696e67204c50000000008152506040518060400160405280600381526020017f534c500000000000000000000000000000000000000000000000000000000000815250613972565b6112d133613984565b8a5f5f6101000a8154816001600160a01b0302191690836001600160a01b031602179055508960015f6101000a8154816001600160a01b0302191690836001600160a01b031602179055508860025f6101000a8154816001600160a01b0302191690836001600160a01b031602179055508760035f6101000a8154816001600160a01b0302191690836001600160a01b031602179055508b60045f6101000a8154816001600160a01b0302191690836001600160a01b031602179055508660065f6101000a8154816001600160a01b0302191690836001600160a01b031602179055508660055f6101000a8154816001600160a01b0302191690836001600160a01b031602179055508560075f6101000a8154816001600160a01b0302191690836001600160a01b031602179055508a6001600160a01b0316639dca362f6040518163ffffffff1660e01b81526004016020604051808303815f875af115801561143d573d5f5f3e3d5ffd5b505050506040513d601f19601f820116820180604052508101906114619190615709565b6fffffffffffffffffffffffffffffffff9081167001000000000000000000000000000000009081027fffffffffffffffffffffffffffffffff00000000000000000000000000000000166001176008819055700300000000000000000000000000000001600955662386f26fc10000600a5561012c600b556611c37937e08000600c556002546040517ecd9ef30000000000000000000000000000000000000000000000000000000081529290910490921660048201527f524557415244530000000000000000000000000000000000000000000000000060248201526001600160a01b039182166044820152908c169062cd9ef3906064015f604051808303815f87803b158015611572575f5ffd5b505af1158015611584573d5f5f3e3d5ffd5b5050600480546006546040517f095ea7b30000000000000000000000000000000000000000000000000000000081526001600160a01b03918216938101939093525f19602484015216925063095ea7b391506044016020604051808303815f875af11580156115f5573d5f5f3e3d5ffd5b505050506040513d601f19601f8201168201806040525081019061161991906156ee565b50831561167b5784547fffffffffffffffffffffffffffffffffffffffffffffff00ffffffffffffffff168555604051600181527fc7f505b2f371ae2175ee4913f4499e1f2633a7b5936321eed1cdaeb6115181d29060200160405180910390a15b505050505050505050505050565b6060600e5f611696613995565b6001600160a01b0316815260208101919091526040015f205460ff166116e8576040517fdd90ef3e00000000000000000000000000000000000000000000000000000000815260040160405180910390fd5b6002546008546040517fac3103ed0000000000000000000000000000000000000000000000000000000081527001000000000000000000000000000000009091046fffffffffffffffffffffffffffffffff1660048201525f916001600160a01b03169063ac3103ed906024015f604051808303815f875af1158015611770573d5f5f3e3d5ffd5b505050506040513d5f823e601f3d9081017fffffffffffffffffffffffffffffffffffffffffffffffffffffffffffffffe01682016040526117b59190810190615724565b91505090565b5f610e37825f6139ef565b6117ce6138fe565b600b8190556040518181527fed71e8f0676d61e3c438bc3e85e659002070a623545f990bc80204f34eeb0ea79060200161113d565b61180b613a42565b61181482613b12565b61181e8282613b1a565b5050565b5f61182b613c39565b507f360894a13ba1a3210667c828492db98dca3e2076cc3735a920a3ca505d382bbc90565b5f610e37825f613c9b565b6006545f90611873906001600160a01b031684613cd9565b5f61187d846117bb565b905061188884613f43565b6001600160a01b0383165f908152600d602052604090204290556118ac838261442f565b5f6118b5613995565b9050836001600160a01b0316816001600160a01b03167fdcbc1c05240f31ff3ad067ef1ee35ce4997762752e3a095284754544f4c709d78785604051611905929190918252602082015260400190565b60405180910390a3509392505050565b61191d6138fe565b6119265f61447c565b565b5f80546008546007546040517f3593bbd20000000000000000000000000000000000000000000000000000000081526fffffffffffffffffffffffffffffffff70010000000000000000000000000000000084048116600483015290921660248301526001600160a01b03908116604483015290911690633593bbd2906064016020604051808303815f875af11580156119c4573d5f5f3e3d5ffd5b505050506040513d601f19601f82011682018060405250810190610d4c91906156b5565b6119f06138fe565b600a8190556040518181527f9df0c5efc0a642a6cafaf469d9af87e9cd452baf05a7c634a22327091a3b3a799060200161113d565b7f52c63247e1f47db19d5ce0460030c497f067ca4cebf71ba98eeadabe20bace0480546060917f52c63247e1f47db19d5ce0460030c497f067ca4cebf71ba98eeadabe20bace0091610da290615624565b6001600160a01b0382165f908152600d60205260408120548190611a9a904261581d565b90505f611abc670de0b6b3a7640000600b54846145049092919063ffffffff16565b9050670de0b6b3a7640000811115611ad8575f92505050610e37565b5f611b00611aee83670de0b6b3a764000061581d565b600a5490670de0b6b3a7640000614504565b9050611b158582670de0b6b3a7640000614504565b9695505050505050565b5f600b54600d5f611b2e613995565b6001600160a01b0316815260208101919091526040015f2054611b51904261581d565b1015611b89576040517ff90e674a00000000000000000000000000000000000000000000000000000000815260040160405180910390fd5b6110fd83836145ba565b5f5f611b9d611928565b90505f8113611bad575f91505090565b6117b560045f9054906101000a90046001600160a01b03166001600160a01b031663313ce5676040518163ffffffff1660e01b8152600401602060405180830381865afa158015611c00573d5f5f3e3d5ffd5b505050506040513d601f19601f82011682018060405250810190611c249190615830565b611c2f90600a615933565b8290670de0b6b3a764000060016145c7565b5f80546008546007546040517f33cc422b0000000000000000000000000000000000000000000000000000000081526fffffffffffffffffffffffffffffffff70010000000000000000000000000000000084048116600483015290921660248301526001600160a01b039081166044830152839216906333cc422b90606401602060405180830381865afa158015611cdc573d5f5f3e3d5ffd5b505050506040513d601f19601f82011682018060405250810190611d0091906156b5565b90505f611d0b611928565b6002546008546040517f1fb504830000000000000000000000000000000000000000000000000000000081527001000000000000000000000000000000009091046fffffffffffffffffffffffffffffffff1660048201529192505f916001600160a01b0390911690631fb50483906024016020604051808303815f875af1158015611d99573d5f5f3e3d5ffd5b505050506040513d601f19601f82011682018060405250810190611dbd91906156b5565b9050611de8600c54670de0b6b3a7640000611dd8919061581d565b8290670de0b6b3a7640000614504565b90505f611df58383615941565b9050611e0664e8d4a5100085615994565b9350805f03611e185750919392505050565b5f5f8213611e2e57611e29826159a7565b611e30565b815b90505f60065f9054906101000a90046001600160a01b03166001600160a01b0316632c4e722e6040518163ffffffff1660e01b8152600401602060405180830381865afa158015611e83573d5f5f3e3d5ffd5b505050506040513d601f19601f82011682018060405250810190611ea791906156b5565b90505f611ebc8366038d7ea4c6800084614504565b90505f5f8513611ed557611ed0828961581d565b611edf565b611edf82896156a2565b9998505050505050505050565b5f5f611ef785611850565b9050611f038382611a76565b611f0d908261581d565b90505f611f18611b93565b90508015611fce5760045460408051602080820186905282518083039091018152818301928390527f42b0b77c0000000000000000000000000000000000000000000000000000000090925273a238dd80c259a72e81d7e4664a9801593f98d1c5926342b0b77c92611f9c9230926001600160a01b03169187915f906044016159dd565b5f604051808303815f87803b158015611fb3575f5ffd5b505af1158015611fc5573d5f5f3e3d5ffd5b50505050611fd7565b611fd782613371565b611fe4338686858a614612565b50949350505050565b5f600e5f611ff9613995565b6001600160a01b0316815260208101919091526040015f205460ff1661204b576040517fdd90ef3e00000000000000000000000000000000000000000000000000000000815260040160405180910390fd5b81518314612085576040517ff12060b900000000000000000000000000000000000000000000000000000000815260040160405180910390fd5b600480546040517f70a0823100000000000000000000000000000000000000000000000000000000815230928101929092525f916001600160a01b03909116906370a0823190602401602060405180830381865afa1580156120e9573d5f5f3e3d5ffd5b505050506040513d601f19601f8201168201806040525081019061210d91906156b5565b90505f5b83518110156121f35783818151811061212c5761212c615a29565b602002602001015160a001516001600160a01b031663095ea7b360035f9054906101000a90046001600160a01b031686848151811061216d5761216d615a29565b6020026020010151602001516040518363ffffffff1660e01b81526004016121aa9291906001600160a01b03929092168252602082015260400190565b6020604051808303815f875af11580156121c6573d5f5f3e3d5ffd5b505050506040513d601f19601f820116820180604052508101906121ea91906156ee565b50600101612111565b505f5b848110156122f9576003545f9081906001600160a01b03168189898681811061222157612221615a29565b90506020028101906122339190615a56565b604051612241929190615ab7565b5f6040518083038185875af1925050503d805f811461227b576040519150601f19603f3d011682016040523d82523d5f602084013e612280565b606091505b5091509150816122cf57612293816146be565b6040517f08c379a00000000000000000000000000000000000000000000000000000000081526004016122c69190614f33565b60405180910390fd5b808060200190518101906122e391906156b5565b6122ed90866156a2565b945050506001016121f6565b50600480546040517f70a0823100000000000000000000000000000000000000000000000000000000815230928101929092525f916001600160a01b03909116906370a0823190602401602060405180830381865afa15801561235e573d5f5f3e3d5ffd5b505050506040513d601f19601f8201168201806040525081019061238291906156b5565b90508261238f838361581d565b146123c6576040517f3a83ce5b00000000000000000000000000000000000000000000000000000000815260040160405180910390fd5b50509392505050565b6123d76138fe565b6001600160a01b03919091165f908152600e6020526040902080547fffffffffffffffffffffffffffffffffffffffffffffffffffffffffffffff0016911515919091179055565b6124276138fe565b6001600160a01b038116612469576040517f1e4fbdf70000000000000000000000000000000000000000000000000000000081525f60048201526024016122c6565b6124728161447c565b50565b61247d6138fe565b600280547fffffffffffffffffffffffff0000000000000000000000000000000000000000166001600160a01b0392909216919091179055565b600e5f6124c2613995565b6001600160a01b0316815260208101919091526040015f205460ff16612514576040517fdd90ef3e00000000000000000000000000000000000000000000000000000000815260040160405180910390fd5b5f61251d611928565b90505f81131561270457600480546040517f70a0823100000000000000000000000000000000000000000000000000000000815230928101929092525f916001600160a01b03909116906370a0823190602401602060405180830381865afa15801561258b573d5f5f3e3d5ffd5b505050506040513d601f19601f820116820180604052508101906125af91906156b5565b90505f61264660045f9054906101000a90046001600160a01b03166001600160a01b031663313ce5676040518163ffffffff1660e01b8152600401602060405180830381865afa158015612605573d5f5f3e3d5ffd5b505050506040513d601f19601f820116820180604052508101906126299190615830565b61263490600a615933565b8490670de0b6b3a764000060016145c7565b905080821061265d5761265883612dcc565b6126fd565b6126fd610ed8670de0b6b3a764000060045f9054906101000a90046001600160a01b03166001600160a01b031663313ce5676040518163ffffffff1660e01b8152600401602060405180830381865afa1580156126bc573d5f5f3e3d5ffd5b505050506040513d601f19601f820116820180604052508101906126e09190615830565b6126eb90600a615933565b6126f660018761581d565b9190614504565b5050612c8b565b5f811215612c8b575f546008546007546001600160a01b039283169263df16a074926fffffffffffffffffffffffffffffffff70010000000000000000000000000000000082048116939116911661275b866159a7565b6040517fffffffff0000000000000000000000000000000000000000000000000000000060e087901b1681526fffffffffffffffffffffffffffffffff94851660048201529390921660248401526001600160a01b0316604483015260648201526084015f604051808303815f87803b1580156127d6575f5ffd5b505af11580156127e8573d5f5f3e3d5ffd5b505050505f5f5f9054906101000a90046001600160a01b03166001600160a01b03166321f1d9e56040518163ffffffff1660e01b8152600401602060405180830381865afa15801561283c573d5f5f3e3d5ffd5b505050506040513d601f19601f820116820180604052508101906128609190615609565b5f546008549192506001600160a01b0316906395997c519070010000000000000000000000000000000090046fffffffffffffffffffffffffffffffff16836128a8866159a7565b6040517fffffffff0000000000000000000000000000000000000000000000000000000060e086901b1681526fffffffffffffffffffffffffffffffff90931660048401526001600160a01b03909116602483015260448201526064015f604051808303815f87803b15801561291c575f5ffd5b505af115801561292e573d5f5f3e3d5ffd5b50506001546009545f93506001600160a01b03909116915063ab75d950906fffffffffffffffffffffffffffffffff16612967866159a7565b60016040518463ffffffff1660e01b815260040161298793929190615af3565b60a060405180830381865afa1580156129a2573d5f5f3e3d5ffd5b505050506040513d601f19601f820116820180604052508101906129c69190615b56565b506001549091506001600160a01b038084169163095ea7b391166129e9866159a7565b6040517fffffffff0000000000000000000000000000000000000000000000000000000060e085901b1681526001600160a01b03909216600483015260248201526044016020604051808303815f875af1158015612a49573d5f5f3e3d5ffd5b505050506040513d601f19601f82011682018060405250810190612a6d91906156ee565b506001546009545f916001600160a01b03169063a12d9400906fffffffffffffffffffffffffffffffff16612aa1876159a7565b6040517fffffffff0000000000000000000000000000000000000000000000000000000060e085901b1681526fffffffffffffffffffffffffffffffff90921660048301526024820152604481018590525f606482015260840160a0604051808303815f875af1158015612b17573d5f5f3e3d5ffd5b505050506040513d601f19601f82011682018060405250810190612b3b9190615b56565b5090505f670de0b6b3a764000060045f9054906101000a90046001600160a01b03166001600160a01b031663313ce5676040518163ffffffff1660e01b8152600401602060405180830381865afa158015612b98573d5f5f3e3d5ffd5b505050506040513d601f19601f82011682018060405250810190612bbc9190615830565b612bc790600a615933565b612bd19084615bf5565b612bdb9190615994565b6001546009546040517f784dad9e0000000000000000000000000000000000000000000000000000000081526fffffffffffffffffffffffffffffffff909116600482015260248101859052604481018390529192506001600160a01b03169063784dad9e9060640160a0604051808303815f875af1158015612c60573d5f5f3e3d5ffd5b505050506040513d601f19601f82011682018060405250810190612c849190615b56565b5050505050505b600480546040517f70a0823100000000000000000000000000000000000000000000000000000000815230928101929092525f916001600160a01b03909116906370a0823190602401602060405180830381865afa158015612cef573d5f5f3e3d5ffd5b505050506040513d601f19601f82011682018060405250810190612d1391906156b5565b9050801561181e576006546040517f273cd895000000000000000000000000000000000000000000000000000000008152600481018390523060248201525f6044820181905260016064830152916001600160a01b03169063273cd895906084016020604051808303815f875af1158015612d90573d5f5f3e3d5ffd5b505050506040513d601f19601f82011682018060405250810190612db491906156b5565b9050610cd281613f43565b610cd2838383600161471d565b600180546009546040517fc4b41a2e0000000000000000000000000000000000000000000000000000000081525f936001600160a01b039093169263c4b41a2e92612e30926fffffffffffffffffffffffffffffffff909116918791600401615af3565b60a060405180830381865afa158015612e4b573d5f5f3e3d5ffd5b505050506040513d601f19601f82011682018060405250810190612e6f9190615b56565b5090505f670de0b6b3a764000060045f9054906101000a90046001600160a01b03166001600160a01b031663313ce5676040518163ffffffff1660e01b8152600401602060405180830381865afa158015612ecc573d5f5f3e3d5ffd5b505050506040513d601f19601f82011682018060405250810190612ef09190615830565b612efb90600a615933565b612f059084615bf5565b612f0f9190615994565b612f1a9060016156a2565b600480546001546040517f095ea7b30000000000000000000000000000000000000000000000000000000081526001600160a01b039182169381019390935260248301849052929350919091169063095ea7b3906044016020604051808303815f875af1158015612f8d573d5f5f3e3d5ffd5b505050506040513d601f19601f82011682018060405250810190612fb191906156ee565b506001546009546040517fd7ce770c0000000000000000000000000000000000000000000000000000000081526fffffffffffffffffffffffffffffffff909116600482015260248101839052604481018490525f916001600160a01b03169063d7ce770c9060640160a0604051808303815f875af1158015613036573d5f5f3e3d5ffd5b505050506040513d601f19601f8201168201806040525081019061305a9190615b56565b506001546009546040517f4ce94d9d0000000000000000000000000000000000000000000000000000000081526fffffffffffffffffffffffffffffffff909116600482015260248101879052604481018390525f60648201529192506001600160a01b031690634ce94d9d9060840160a0604051808303815f875af11580156130e6573d5f5f3e3d5ffd5b505050506040513d601f19601f8201168201806040525081019061310a9190615b56565b50505f5f5f9054906101000a90046001600160a01b03166001600160a01b03166321f1d9e56040518163ffffffff1660e01b8152600401602060405180830381865afa15801561315c573d5f5f3e3d5ffd5b505050506040513d601f19601f820116820180604052508101906131809190615609565b5f546040517f095ea7b30000000000000000000000000000000000000000000000000000000081526001600160a01b0391821660048201526024810188905291925082169063095ea7b3906044016020604051808303815f875af11580156131ea573d5f5f3e3d5ffd5b505050506040513d601f19601f8201168201806040525081019061320e91906156ee565b505f546008546040517f838029680000000000000000000000000000000000000000000000000000000081527001000000000000000000000000000000009091046fffffffffffffffffffffffffffffffff1660048201526001600160a01b03838116602483015260448201889052909116906383802968906064015f604051808303815f87803b1580156132a1575f5ffd5b505af11580156132b3573d5f5f3e3d5ffd5b50505f546008546007546040517fd3264e430000000000000000000000000000000000000000000000000000000081526fffffffffffffffffffffffffffffffff70010000000000000000000000000000000084048116600483015290921660248301526001600160a01b039081166044830152606482018a9052909116925063d3264e4391506084015f604051808303815f87803b158015613354575f5ffd5b505af1158015613366573d5f5f3e3d5ffd5b505050505050505050565b600654604080517f313ce56700000000000000000000000000000000000000000000000000000000815290515f926001600160a01b03169163313ce5679160048083019260209291908290030181865afa1580156133d1573d5f5f3e3d5ffd5b505050506040513d601f19601f820116820180604052508101906133f59190615830565b61340090600a615933565b61341283670de0b6b3a7640000615bf5565b61341c9190615994565b5f80546008546007546040517f33cc422b0000000000000000000000000000000000000000000000000000000081526fffffffffffffffffffffffffffffffff70010000000000000000000000000000000084048116600483015290921660248301526001600160a01b039081166044830152939450919216906333cc422b90606401602060405180830381865afa1580156134ba573d5f5f3e3d5ffd5b505050506040513d601f19601f820116820180604052508101906134de91906156b5565b90505f6134eb838361581d565b5f546008546007546040517f7b0532a40000000000000000000000000000000000000000000000000000000081526fffffffffffffffffffffffffffffffff70010000000000000000000000000000000084048116600483015290921660248301526001600160a01b03908116604483015260648201849052670de0b6b3a76400006084830152929350911690637b0532a49060a4015f604051808303815f87803b158015613598575f5ffd5b505af11580156135aa573d5f5f3e3d5ffd5b50505f546008546007546040517f95997c510000000000000000000000000000000000000000000000000000000081527001000000000000000000000000000000009092046fffffffffffffffffffffffffffffffff1660048301526001600160a01b0390811660248301526044820188905290911692506395997c5191506064015f604051808303815f87803b158015613643575f5ffd5b505af1158015613655573d5f5f3e3d5ffd5b505050505f670de0b6b3a764000060065f9054906101000a90046001600160a01b03166001600160a01b031663313ce5676040518163ffffffff1660e01b8152600401602060405180830381865afa1580156136b3573d5f5f3e3d5ffd5b505050506040513d601f19601f820116820180604052508101906136d79190615830565b6136e290600a615933565b6136ec9086615bf5565b6136f69190615994565b6001546009546040517f784dad9e0000000000000000000000000000000000000000000000000000000081527001000000000000000000000000000000009091046fffffffffffffffffffffffffffffffff16600482015260248101879052604481018390529192506001600160a01b03169063784dad9e9060640160a0604051808303815f875af115801561378e573d5f5f3e3d5ffd5b505050506040513d601f19601f820116820180604052508101906137b29190615b56565b50505050505050565b6001600160a01b038381165f9081527f52c63247e1f47db19d5ce0460030c497f067ca4cebf71ba98eeadabe20bace0160209081526040808320938616835292905220545f19811015613869578181101561385b576040517ffb8f41b20000000000000000000000000000000000000000000000000000000081526001600160a01b038416600482015260248101829052604481018390526064016122c6565b61386984848484035f61471d565b50505050565b6001600160a01b0383166138b1576040517f96c6fd1e0000000000000000000000000000000000000000000000000000000081525f60048201526024016122c6565b6001600160a01b0382166138f3576040517fec442f050000000000000000000000000000000000000000000000000000000081525f60048201526024016122c6565b610cd2838383614846565b336139307f9016d09d72d40fdae2fd8ceac6b6234c7706214fd39c1cd1e609a0528c199300546001600160a01b031690565b6001600160a01b031614611926576040517f118cdaa70000000000000000000000000000000000000000000000000000000081523360048201526024016122c6565b61397a6149ab565b61181e8282614a12565b61398c6149ab565b61247281614a75565b5f73e2c5658cc5c448b48141168f3e475df8f65a1e3e331480156139ba575060143610155b156139ea57507fffffffffffffffffffffffffffffffffffffffffffffffffffffffffffffffec36013560601c90565b503390565b5f6110fd613a1b7f52c63247e1f47db19d5ce0460030c497f067ca4cebf71ba98eeadabe20bace025490565b613a269060016156a2565b613a2e611c41565b613a399060016156a2565b859190856145c7565b306001600160a01b037f0000000000000000000000000000000000000000000000000000000000000000161480613adb57507f00000000000000000000000000000000000000000000000000000000000000006001600160a01b0316613acf7f360894a13ba1a3210667c828492db98dca3e2076cc3735a920a3ca505d382bbc546001600160a01b031690565b6001600160a01b031614155b15611926576040517fe07c8dba00000000000000000000000000000000000000000000000000000000815260040160405180910390fd5b6124726138fe565b816001600160a01b03166352d1902d6040518163ffffffff1660e01b8152600401602060405180830381865afa925050508015613b92575060408051601f3d9081017fffffffffffffffffffffffffffffffffffffffffffffffffffffffffffffffe0168201909252613b8f918101906156b5565b60015b613bd3576040517f4c9c8ce30000000000000000000000000000000000000000000000000000000081526001600160a01b03831660048201526024016122c6565b7f360894a13ba1a3210667c828492db98dca3e2076cc3735a920a3ca505d382bbc8114613c2f576040517faa1d49a4000000000000000000000000000000000000000000000000000000008152600481018290526024016122c6565b610cd28383614a7d565b306001600160a01b037f00000000000000000000000000000000000000000000000000000000000000001614611926576040517fe07c8dba00000000000000000000000000000000000000000000000000000000815260040160405180910390fd5b5f6110fd613ca7611c41565b613cb29060016156a2565b7f52c63247e1f47db19d5ce0460030c497f067ca4cebf71ba98eeadabe20bace0254613a2e565b5f613ce2613995565b6040517fdd62ed3e0000000000000000000000000000000000000000000000000000000081526001600160a01b0380831660048301523060248301529192505f9185169063dd62ed3e90604401602060405180830381865afa158015613d4a573d5f5f3e3d5ffd5b505050506040513d601f19601f82011682018060405250810190613d6e91906156b5565b905080831115613dcb576040517f27f700a80000000000000000000000000000000000000000000000000000000081526001600160a01b0380841660048301528516602482015260448101849052606481018290526084016122c6565b6040517f70a082310000000000000000000000000000000000000000000000000000000081526001600160a01b0383811660048301525f91908616906370a0823190602401602060405180830381865afa158015613e2b573d5f5f3e3d5ffd5b505050506040513d601f19601f82011682018060405250810190613e4f91906156b5565b905080841115613eac576040517f8398866a0000000000000000000000000000000000000000000000000000000081526001600160a01b0380851660048301528616602482015260448101859052606481018290526084016122c6565b6040517f23b872dd0000000000000000000000000000000000000000000000000000000081526001600160a01b038481166004830152306024830152604482018690528616906323b872dd906064016020604051808303815f875af1158015613f17573d5f5f3e3d5ffd5b505050506040513d601f19601f82011682018060405250810190613f3b91906156ee565b505050505050565b6001546006546040517f095ea7b30000000000000000000000000000000000000000000000000000000081526001600160a01b039283166004820181905260248201859052929091169063095ea7b3906044016020604051808303815f875af1158015613fb2573d5f5f3e3d5ffd5b505050506040513d601f19601f82011682018060405250810190613fd691906156ee565b50600654604080517f313ce56700000000000000000000000000000000000000000000000000000000815290515f926001600160a01b03169163313ce5679160048083019260209291908290030181865afa158015614037573d5f5f3e3d5ffd5b505050506040513d601f19601f8201168201806040525081019061405b9190615830565b61406690600a615933565b61407884670de0b6b3a7640000615bf5565b6140829190615994565b6009546040517fd7ce770c0000000000000000000000000000000000000000000000000000000081527001000000000000000000000000000000009091046fffffffffffffffffffffffffffffffff16600482015260248101859052604481018290529091506001600160a01b0383169063d7ce770c9060640160a0604051808303815f875af1158015614118573d5f5f3e3d5ffd5b505050506040513d601f19601f8201168201806040525081019061413c9190615b56565b50506007545f546040517f095ea7b30000000000000000000000000000000000000000000000000000000081526001600160a01b0391821660048201526024810184905291169063095ea7b3906044016020604051808303815f875af11580156141a8573d5f5f3e3d5ffd5b505050506040513d601f19601f820116820180604052508101906141cc91906156ee565b505f546008546007546040517f838029680000000000000000000000000000000000000000000000000000000081527001000000000000000000000000000000009092046fffffffffffffffffffffffffffffffff1660048301526001600160a01b03908116602483015260448201849052909116906383802968906064015f604051808303815f87803b158015614262575f5ffd5b505af1158015614274573d5f5f3e3d5ffd5b50505f80546008546007546040517f33cc422b0000000000000000000000000000000000000000000000000000000081526fffffffffffffffffffffffffffffffff70010000000000000000000000000000000084048116600483015290921660248301526001600160a01b039081166044830152929450911691506333cc422b90606401602060405180830381865afa158015614314573d5f5f3e3d5ffd5b505050506040513d601f19601f8201168201806040525081019061433891906156b5565b5f546008546007549293506001600160a01b0391821692637b0532a4926fffffffffffffffffffffffffffffffff700100000000000000000000000000000000840481169316911661438a87876156a2565b6040517fffffffff0000000000000000000000000000000000000000000000000000000060e087901b1681526fffffffffffffffffffffffffffffffff94851660048201529390921660248401526001600160a01b031660448301526064820152670de0b6b3a7640000608482015260a4015f604051808303815f87803b158015614413575f5ffd5b505af1158015614425573d5f5f3e3d5ffd5b5050505050505050565b6001600160a01b038216614471576040517fec442f050000000000000000000000000000000000000000000000000000000081525f60048201526024016122c6565b61181e5f8383614846565b7f9016d09d72d40fdae2fd8ceac6b6234c7706214fd39c1cd1e609a0528c19930080547fffffffffffffffffffffffff000000000000000000000000000000000000000081166001600160a01b03848116918217845560405192169182907f8be0079c531659141344cd1fd0a4f28419497f9722a3daafe3b4186f6b6457e0905f90a3505050565b5f838302815f1985870982811083820303915050805f036145385783828161452e5761452e615967565b04925050506110fd565b80841161454f5761454f6003851502601118614ad2565b5f848688095f868103871696879004966002600389028118808a02820302808a02820302808a02820302808a02820302808a02820302808a02909103029181900381900460010186841190950394909402919094039290920491909117919091029150509392505050565b5f33610e3181858561386f565b5f6145f46145d483614ae3565b80156145ef57505f84806145ea576145ea615967565b868809115b151590565b6145ff868686614504565b61460991906156a2565b95945050505050565b826001600160a01b0316856001600160a01b031614614636576146368386836137bb565b6146408382614b0f565b600554614657906001600160a01b03168584614b5c565b826001600160a01b0316846001600160a01b0316866001600160a01b03167ffbde797d201c681b91056529119e0b02407c7bb96a4a2c75c01fc9667232c8db85856040516146af929190918252602082015260400190565b60405180910390a45050505050565b606060448251101561470357505060408051808201909152601d81527f5472616e73616374696f6e2072657665727465642073696c656e746c79000000602082015290565b60048201915081806020019051810190610e379190615c0c565b7f52c63247e1f47db19d5ce0460030c497f067ca4cebf71ba98eeadabe20bace006001600160a01b038516614780576040517fe602df050000000000000000000000000000000000000000000000000000000081525f60048201526024016122c6565b6001600160a01b0384166147c2576040517f94280d620000000000000000000000000000000000000000000000000000000081525f60048201526024016122c6565b6001600160a01b038086165f9081526001830160209081526040808320938816835292905220839055811561483f57836001600160a01b0316856001600160a01b03167f8c5be1e5ebec7d5bd14f71427d1e84f3dd0314c0f7b2291e5b200ac8c7c3b9258560405161483691815260200190565b60405180910390a35b5050505050565b7f52c63247e1f47db19d5ce0460030c497f067ca4cebf71ba98eeadabe20bace006001600160a01b0384166148935781816002015f82825461488891906156a2565b9091555061491c9050565b6001600160a01b0384165f90815260208290526040902054828110156148fe576040517fe450d38c0000000000000000000000000000000000000000000000000000000081526001600160a01b038616600482015260248101829052604481018490526064016122c6565b6001600160a01b0385165f9081526020839052604090209083900390555b6001600160a01b03831661493a576002810180548390039055614958565b6001600160a01b0383165f9081526020829052604090208054830190555b826001600160a01b0316846001600160a01b03167fddf252ad1be2c89b69c2b068fc378daa952ba7f163c4a11628f55a4df523b3ef8460405161499d91815260200190565b60405180910390a350505050565b7ff0c57e16840df040f15088dc2f81fe391c3923bec73e23a9662efc9c229c6a005468010000000000000000900460ff16611926576040517fd7e6bcf800000000000000000000000000000000000000000000000000000000815260040160405180910390fd5b614a1a6149ab565b7f52c63247e1f47db19d5ce0460030c497f067ca4cebf71ba98eeadabe20bace007f52c63247e1f47db19d5ce0460030c497f067ca4cebf71ba98eeadabe20bace03614a668482615cc5565b50600481016138698382615cc5565b6124276149ab565b614a8682614bdc565b6040516001600160a01b038316907fbc7cd75a20ee27fd9adebab32041f755214dbc6bffa90cc0225b39da2e5c2d3b905f90a2805115614aca57610cd28282614c83565b61181e614cec565b634e487b715f52806020526024601cfd5b5f6002826003811115614af857614af8615ac6565b614b029190615d9e565b60ff166001149050919050565b6001600160a01b038216614b51576040517f96c6fd1e0000000000000000000000000000000000000000000000000000000081525f60048201526024016122c6565b61181e825f83614846565b604080516001600160a01b038416602482015260448082018490528251808303909101815260649091019091526020810180517bffffffffffffffffffffffffffffffffffffffffffffffffffffffff167fa9059cbb00000000000000000000000000000000000000000000000000000000179052610cd2908490614d24565b806001600160a01b03163b5f03614c2a576040517f4c9c8ce30000000000000000000000000000000000000000000000000000000081526001600160a01b03821660048201526024016122c6565b7f360894a13ba1a3210667c828492db98dca3e2076cc3735a920a3ca505d382bbc80547fffffffffffffffffffffffff0000000000000000000000000000000000000000166001600160a01b0392909216919091179055565b60605f5f846001600160a01b031684604051614c9f9190615dbf565b5f60405180830381855af49150503d805f8114614cd7576040519150601f19603f3d011682016040523d82523d5f602084013e614cdc565b606091505b5091509150614609858383614da9565b3415611926576040517fb398979f00000000000000000000000000000000000000000000000000000000815260040160405180910390fd5b5f5f60205f8451602086015f885af180614d43576040513d5f823e3d81fd5b50505f513d91508115614d5a578060011415614d67565b6001600160a01b0384163b155b15613869576040517f5274afe70000000000000000000000000000000000000000000000000000000081526001600160a01b03851660048201526024016122c6565b606082614dbe57614db982614e1e565b6110fd565b8151158015614dd557506001600160a01b0384163b155b15614e17576040517f9996b3150000000000000000000000000000000000000000000000000000000081526001600160a01b03851660048201526024016122c6565b50806110fd565b805115614e2e5780518082602001fd5b6040517fd6bda27500000000000000000000000000000000000000000000000000000000815260040160405180910390fd5b5f5f83601f840112614e70575f5ffd5b50813567ffffffffffffffff811115614e87575f5ffd5b6020830191508360208260051b8501011115614ea1575f5ffd5b9250929050565b5f5f60208385031215614eb9575f5ffd5b823567ffffffffffffffff811115614ecf575f5ffd5b614edb85828601614e60565b90969095509350505050565b5f81518084528060208401602086015e5f6020828601015260207fffffffffffffffffffffffffffffffffffffffffffffffffffffffffffffffe0601f83011685010191505092915050565b602081525f6110fd6020830184614ee7565b5f60208284031215614f55575f5ffd5b5035919050565b6001600160a01b0381168114612472575f5ffd5b5f5f60408385031215614f81575f5ffd5b8235614f8c81614f5c565b946020939093013593505050565b7f4e487b71000000000000000000000000000000000000000000000000000000005f52604160045260245ffd5b60405160c0810167ffffffffffffffff81118282101715614fea57614fea614f9a565b60405290565b604051601f82017fffffffffffffffffffffffffffffffffffffffffffffffffffffffffffffffe016810167ffffffffffffffff8111828210171561503757615037614f9a565b604052919050565b5f67ffffffffffffffff82111561505857615058614f9a565b50601f017fffffffffffffffffffffffffffffffffffffffffffffffffffffffffffffffe01660200190565b5f82601f830112615093575f5ffd5b81356150a66150a18261503f565b614ff0565b8181528460208386010111156150ba575f5ffd5b816020850160208301375f918101602001919091529392505050565b5f5f5f5f608085870312156150e9575f5ffd5b84356150f481614f5c565b9350602085013561510481614f5c565b925060408501359150606085013567ffffffffffffffff811115615126575f5ffd5b61513287828801615084565b91505092959194509250565b5f5f5f5f5f5f60a08789031215615153575f5ffd5b863561515e81614f5c565b95506020870135945060408701359350606087013561517c81614f5c565b9250608087013567ffffffffffffffff811115615197575f5ffd5b8701601f810189136151a7575f5ffd5b803567ffffffffffffffff8111156151bd575f5ffd5b8960208284010111156151ce575f5ffd5b60208201935080925050509295509295509295565b5f5f5f606084860312156151f5575f5ffd5b833561520081614f5c565b9250602084013561521081614f5c565b929592945050506040919091013590565b5f5f5f5f5f5f5f60e0888a031215615237575f5ffd5b873561524281614f5c565b9650602088013561525281614f5c565b9550604088013561526281614f5c565b9450606088013561527281614f5c565b9350608088013561528281614f5c565b925060a088013561529281614f5c565b915060c08801356152a281614f5c565b8091505092959891949750929550565b602080825282518282018190525f918401906040840190835b8181101561535057835180518452602081015160208501526fffffffffffffffffffffffffffffffff60408201511660408501526001600160a01b0360608201511660608501526001600160a01b0360808201511660808501526001600160a01b0360a08201511660a08501525060c0830192506020840193506001810190506152cb565b509095945050505050565b5f6020828403121561536b575f5ffd5b81356110fd81614f5c565b5f5f60408385031215615387575f5ffd5b823561539281614f5c565b9150602083013567ffffffffffffffff8111156153ad575f5ffd5b6153b985828601615084565b9150509250929050565b5f5f604083850312156153d4575f5ffd5b8235915060208301356153e681614f5c565b809150509250929050565b5f5f5f60608486031215615403575f5ffd5b83359250602084013561541581614f5c565b9150604084013561542581614f5c565b809150509250925092565b5f67ffffffffffffffff82111561544957615449614f9a565b5060051b60200190565b6fffffffffffffffffffffffffffffffff81168114612472575f5ffd5b5f5f5f60408486031215615482575f5ffd5b833567ffffffffffffffff811115615498575f5ffd5b6154a486828701614e60565b909450925050602084013567ffffffffffffffff8111156154c3575f5ffd5b8401601f810186136154d3575f5ffd5b80356154e16150a182615430565b80828252602082019150602060c08402850101925088831115615502575f5ffd5b6020840193505b828410156155965760c0848a031215615520575f5ffd5b615528614fc7565b8435815260208086013590820152604085013561554481615453565b6040820152606085013561555781614f5c565b6060820152608085013561556a81614f5c565b608082015260a085013561557d81614f5c565b60a0820152825260c09390930192602090910190615509565b809450505050509250925092565b8015158114612472575f5ffd5b5f5f604083850312156155c2575f5ffd5b82356155cd81614f5c565b915060208301356153e6816155a4565b5f5f604083850312156155ee575f5ffd5b82356155f981614f5c565b915060208301356153e681614f5c565b5f60208284031215615619575f5ffd5b81516110fd81614f5c565b600181811c9082168061563857607f821691505b60208210810361566f577f4e487b71000000000000000000000000000000000000000000000000000000005f52602260045260245ffd5b50919050565b7f4e487b71000000000000000000000000000000000000000000000000000000005f52601160045260245ffd5b80820180821115610e3757610e37615675565b5f602082840312156156c5575f5ffd5b5051919050565b5f5f604083850312156156dd575f5ffd5b505080516020909101519092909150565b5f602082840312156156fe575f5ffd5b81516110fd816155a4565b5f60208284031215615719575f5ffd5b81516110fd81615453565b5f60208284031215615734575f5ffd5b815167ffffffffffffffff81111561574a575f5ffd5b8201601f8101841361575a575f5ffd5b80516157686150a182615430565b80828252602082019150602060c08402850101925086831115615789575f5ffd5b6020840193505b82841015611b155760c084880312156157a7575f5ffd5b6157af614fc7565b845181526020808601519082015260408501516157cb81615453565b604082015260608501516157de81614f5c565b606082015260808501516157f181614f5c565b608082015260a085015161580481614f5c565b60a0820152825260c09390930192602090910190615790565b81810381811115610e3757610e37615675565b5f60208284031215615840575f5ffd5b815160ff811681146110fd575f5ffd5b6001815b600184111561588b5780850481111561586f5761586f615675565b600184161561587d57908102905b60019390931c928002615854565b935093915050565b5f826158a157506001610e37565b816158ad57505f610e37565b81600181146158c357600281146158cd576158e9565b6001915050610e37565b60ff8411156158de576158de615675565b50506001821b610e37565b5060208310610133831016604e8410600b841016171561590c575081810a610e37565b6159185f198484615850565b805f190482111561592b5761592b615675565b029392505050565b5f6110fd60ff841683615893565b8181035f83128015838313168383128216171561596057615960615675565b5092915050565b7f4e487b71000000000000000000000000000000000000000000000000000000005f52601260045260245ffd5b5f826159a2576159a2615967565b500490565b5f7f800000000000000000000000000000000000000000000000000000000000000082036159d7576159d7615675565b505f0390565b6001600160a01b03861681526001600160a01b038516602082015283604082015260a060608201525f615a1360a0830185614ee7565b905061ffff831660808301529695505050505050565b7f4e487b71000000000000000000000000000000000000000000000000000000005f52603260045260245ffd5b5f5f83357fffffffffffffffffffffffffffffffffffffffffffffffffffffffffffffffe1843603018112615a89575f5ffd5b83018035915067ffffffffffffffff821115615aa3575f5ffd5b602001915036819003821315614ea1575f5ffd5b818382375f9101908152919050565b7f4e487b71000000000000000000000000000000000000000000000000000000005f52602160045260245ffd5b6fffffffffffffffffffffffffffffffff84168152602081018390526060810160038310615b48577f4e487b71000000000000000000000000000000000000000000000000000000005f52602160045260245ffd5b826040830152949350505050565b5f5f82840360a0811215615b68575f5ffd5b8351925060807fffffffffffffffffffffffffffffffffffffffffffffffffffffffffffffffe082011215615b9b575f5ffd5b506040516080810167ffffffffffffffff81118282101715615bbf57615bbf614f9a565b60409081526020858101518352858201519083015260608086015191830191909152608090940151938101939093525092909150565b8082028115828204841417610e3757610e37615675565b5f60208284031215615c1c575f5ffd5b815167ffffffffffffffff811115615c32575f5ffd5b8201601f81018413615c42575f5ffd5b8051615c506150a18261503f565b818152856020838501011115615c64575f5ffd5b8160208401602083015e5f91810160200191909152949350505050565b601f821115610cd257805f5260205f20601f840160051c81016020851015615ca65750805b601f840160051c820191505b8181101561483f575f8155600101615cb2565b815167ffffffffffffffff811115615cdf57615cdf614f9a565b615cf381615ced8454615624565b84615c81565b6020601f821160018114615d25575f8315615d0e5750848201515b5f19600385901b1c1916600184901b17845561483f565b5f848152602081207fffffffffffffffffffffffffffffffffffffffffffffffffffffffffffffffe08516915b82811015615d725787850151825560209485019460019092019101615d52565b5084821015615d8f57868401515f19600387901b60f8161c191681555b50505050600190811b01905550565b5f60ff831680615db057615db0615967565b8060ff84160691505092915050565b5f82518060208501845e5f92019182525091905056fea2646970667358221220cae3f1adc0969009daad06e9d6b0b3b15e91feade001de8cf58bb07c1bc3ba4864736f6c634300081c0033",
    "linkReferences": {}
  },
  "methodIdentifiers": {
    "ADDRESSES_PROVIDER()": "0542975c",
    "PERCENT_PRECISION()": "ffe8e372",
    "POOL()": "7535d246",
    "REWARDS_PERMISSION()": "f99f4c53",
    "UPGRADE_INTERFACE_VERSION()": "ad3cb1cc",
    "USDC()": "89a30271",
    "accountId()": "9cfd7cff",
    "allowance(address,address)": "dd62ed3e",
    "approve(address,uint256)": "095ea7b3",
    "asset()": "38d52e0f",
    "balanceOf(address)": "70a08231",
    "claimRewards()": "372500ab",
    "claimSwapCompound(bytes[])": "0433e5d4",
    "compound()": "f69e2046",
    "convertToAssets(uint256)": "07a2d13a",
    "convertToShares(uint256)": "c6e6f592",
    "coreProxy()": "8e519e4c",
    "currentDebt()": "759076e5",
    "decayingRedemptionPenalty(address,uint256)": "a65bac41",
    "decayingRedemptionPenaltyDuration()": "c0c407e0",
    "decayingRedemptionPenaltyStart()": "184b2452",
    "decimals()": "313ce567",
    "deposit(uint256,address)": "6e553f65",
    "executeOperation(address,uint256,uint256,address,bytes)": "1b11d0ff",
    "initialize(address,address,address,address,address,address,address)": "35876476",
    "isKeeper(address)": "6ba42aaa",
    "mint(uint256,address)": "94bf804d",
    "name()": "06fdde03",
    "odosRouter()": "8321928d",
    "onERC721Received(address,address,uint256,bytes)": "150b7a02",
    "owner()": "8da5cb5b",
    "performSwaps(bytes[],(uint256,uint256,uint128,address,address,address)[])": "c79d3547",
    "poolId()": "3e0dc34e",
    "previewDeposit(uint256)": "ef8b30f7",
    "previewDepositSync(uint256)": "38ce3d28",
    "previewMint(uint256)": "b3d7f6b9",
    "previewRedeem(uint256)": "4cdad506",
    "previewRedeemSync(uint256)": "692a073f",
    "previewWithdraw(uint256)": "0a28a477",
    "proxiableUUID()": "52d1902d",
    "redeem(uint256,address,address)": "ba087652",
    "renounceOwnership()": "715018a6",
    "rewardsRegistry()": "1c8b7723",
    "rewardsUsdValueDiscount()": "40638125",
    "setDecayingRedemptionPenaltyDuration(uint256)": "3ba12353",
    "setDecayingRedemptionPenaltyStart(uint256)": "8c794231",
    "setKeeper(address,bool)": "d1b9e853",
    "setRewardsRegistry(address)": "f4770d6e",
    "setRewardsUsdValueDiscount(uint256)": "2cd463fd",
    "spotMarketProxy()": "add1d42a",
    "stataUSDC()": "bc22a4e6",
    "symbol()": "95d89b41",
    "synthIdStataUSDC()": "700073f1",
    "synthIdUSDC()": "af6f7020",
    "synthStataUSDC()": "1c55e681",
    "totalAssets()": "01e1d114",
    "totalAssetsSync()": "b6400c6b",
    "totalSupply()": "18160ddd",
    "transfer(address,uint256)": "a9059cbb",
    "transferFrom(address,address,uint256)": "23b872dd",
    "transferOwnership(address)": "f2fde38b",
    "upgradeToAndCall(address,bytes)": "4f1ef286",
    "usdcToRepayDebt()": "add9019d",
    "userLastDeposited(address)": "3cb2d8ca",
    "withdraw(uint256,address,address)": "b460af94"
  },
  "storageLayout": {
    "storage": [
      {
        "astId": 70,
        "contract": "contracts/AutoCompoundLP.sol:AutoCompoundLP",
        "label": "coreProxy",
        "offset": 0,
        "slot": "0",
        "type": "t_address"
      },
      {
        "astId": 72,
        "contract": "contracts/AutoCompoundLP.sol:AutoCompoundLP",
        "label": "spotMarketProxy",
        "offset": 0,
        "slot": "1",
        "type": "t_address"
      },
      {
        "astId": 74,
        "contract": "contracts/AutoCompoundLP.sol:AutoCompoundLP",
        "label": "rewardsRegistry",
        "offset": 0,
        "slot": "2",
        "type": "t_address"
      },
      {
        "astId": 76,
        "contract": "contracts/AutoCompoundLP.sol:AutoCompoundLP",
        "label": "odosRouter",
        "offset": 0,
        "slot": "3",
        "type": "t_address"
      },
      {
        "astId": 78,
        "contract": "contracts/AutoCompoundLP.sol:AutoCompoundLP",
        "label": "USDC",
        "offset": 0,
        "slot": "4",
        "type": "t_address"
      },
      {
        "astId": 80,
        "contract": "contracts/AutoCompoundLP.sol:AutoCompoundLP",
        "label": "asset",
        "offset": 0,
        "slot": "5",
        "type": "t_address"
      },
      {
        "astId": 82,
        "contract": "contracts/AutoCompoundLP.sol:AutoCompoundLP",
        "label": "stataUSDC",
        "offset": 0,
        "slot": "6",
        "type": "t_address"
      },
      {
        "astId": 84,
        "contract": "contracts/AutoCompoundLP.sol:AutoCompoundLP",
        "label": "synthStataUSDC",
        "offset": 0,
        "slot": "7",
        "type": "t_address"
      },
      {
        "astId": 95,
        "contract": "contracts/AutoCompoundLP.sol:AutoCompoundLP",
        "label": "poolId",
        "offset": 0,
        "slot": "8",
        "type": "t_uint128"
      },
      {
        "astId": 97,
        "contract": "contracts/AutoCompoundLP.sol:AutoCompoundLP",
        "label": "accountId",
        "offset": 16,
        "slot": "8",
        "type": "t_uint128"
      },
      {
        "astId": 99,
        "contract": "contracts/AutoCompoundLP.sol:AutoCompoundLP",
        "label": "synthIdUSDC",
        "offset": 0,
        "slot": "9",
        "type": "t_uint128"
      },
      {
        "astId": 101,
        "contract": "contracts/AutoCompoundLP.sol:AutoCompoundLP",
        "label": "synthIdStataUSDC",
        "offset": 16,
        "slot": "9",
        "type": "t_uint128"
      },
      {
        "astId": 103,
        "contract": "contracts/AutoCompoundLP.sol:AutoCompoundLP",
        "label": "decayingRedemptionPenaltyStart",
        "offset": 0,
        "slot": "10",
        "type": "t_uint256"
      },
      {
        "astId": 105,
        "contract": "contracts/AutoCompoundLP.sol:AutoCompoundLP",
        "label": "decayingRedemptionPenaltyDuration",
        "offset": 0,
        "slot": "11",
        "type": "t_uint256"
      },
      {
        "astId": 107,
        "contract": "contracts/AutoCompoundLP.sol:AutoCompoundLP",
        "label": "rewardsUsdValueDiscount",
        "offset": 0,
        "slot": "12",
        "type": "t_uint256"
      },
      {
        "astId": 114,
        "contract": "contracts/AutoCompoundLP.sol:AutoCompoundLP",
        "label": "userLastDeposited",
        "offset": 0,
        "slot": "13",
        "type": "t_mapping(t_address,t_uint256)"
      },
      {
        "astId": 118,
        "contract": "contracts/AutoCompoundLP.sol:AutoCompoundLP",
        "label": "isKeeper",
        "offset": 0,
        "slot": "14",
        "type": "t_mapping(t_address,t_bool)"
      }
    ],
    "types": {
      "t_address": {
        "encoding": "inplace",
        "label": "address",
        "numberOfBytes": "20"
      },
      "t_bool": {
        "encoding": "inplace",
        "label": "bool",
        "numberOfBytes": "1"
      },
      "t_mapping(t_address,t_bool)": {
        "encoding": "mapping",
        "key": "t_address",
        "label": "mapping(address => bool)",
        "numberOfBytes": "32",
        "value": "t_bool"
      },
      "t_mapping(t_address,t_uint256)": {
        "encoding": "mapping",
        "key": "t_address",
        "label": "mapping(address => uint256)",
        "numberOfBytes": "32",
        "value": "t_uint256"
      },
      "t_uint128": {
        "encoding": "inplace",
        "label": "uint128",
        "numberOfBytes": "16"
      },
      "t_uint256": {
        "encoding": "inplace",
        "label": "uint256",
        "numberOfBytes": "32"
      }
    }
  },
  "id": 0
}